{
  "address": "0x8DD4449DE0faef94dBb9c4eD16850a3d8a05D3DD",
  "abi": [
    {
      "inputs": [
        {
          "internalType": "address",
          "name": "vrfCoordinatorV2",
          "type": "address"
        },
        {
          "internalType": "uint256",
          "name": "entranceFeed",
          "type": "uint256"
        },
        {
          "internalType": "bytes32",
          "name": "gaslane",
          "type": "bytes32"
        },
        {
          "internalType": "uint64",
          "name": "subscriptionId",
          "type": "uint64"
        },
        {
          "internalType": "uint32",
          "name": "callbackGasLimited",
          "type": "uint32"
        },
        {
          "internalType": "uint256",
          "name": "interval",
          "type": "uint256"
        }
      ],
      "stateMutability": "nonpayable",
      "type": "constructor"
    },
    {
      "inputs": [
        {
          "internalType": "address",
          "name": "have",
          "type": "address"
        },
        {
          "internalType": "address",
          "name": "want",
          "type": "address"
        }
      ],
      "name": "OnlyCoordinatorCanFulfill",
      "type": "error"
    },
    {
      "inputs": [],
      "name": "Raffle__NotEnoughtETHEntered",
      "type": "error"
    },
    {
      "inputs": [],
      "name": "Raffle__NotOppen",
      "type": "error"
    },
    {
      "inputs": [],
      "name": "Raffle__TransferFailed",
      "type": "error"
    },
    {
      "inputs": [
        {
          "internalType": "uint256",
          "name": "currentBalance",
          "type": "uint256"
        },
        {
          "internalType": "uint256",
          "name": "numPlayers",
          "type": "uint256"
        },
        {
          "internalType": "uint256",
          "name": "raffleState",
          "type": "uint256"
        }
      ],
      "name": "Raffle__UpkeepNotNeeded",
      "type": "error"
    },
    {
      "anonymous": false,
      "inputs": [
        {
          "indexed": true,
          "internalType": "uint256",
          "name": "resquestId",
          "type": "uint256"
        }
      ],
      "name": "ResquestedRaffleWinner",
      "type": "event"
    },
    {
      "anonymous": false,
      "inputs": [
        {
          "indexed": true,
          "internalType": "address",
          "name": "winner",
          "type": "address"
        }
      ],
      "name": "WinnerPicked",
      "type": "event"
    },
    {
      "anonymous": false,
      "inputs": [
        {
          "indexed": true,
          "internalType": "address",
          "name": "player",
          "type": "address"
        }
      ],
      "name": "raffleEnter",
      "type": "event"
    },
    {
      "inputs": [
        {
          "internalType": "bytes",
          "name": "",
          "type": "bytes"
        }
      ],
      "name": "checkUpkeep",
      "outputs": [
        {
          "internalType": "bool",
          "name": "upkeepNeeded",
          "type": "bool"
        },
        {
          "internalType": "bytes",
          "name": "",
          "type": "bytes"
        }
      ],
      "stateMutability": "view",
      "type": "function"
    },
    {
      "inputs": [],
      "name": "enterRaffle",
      "outputs": [],
      "stateMutability": "payable",
      "type": "function"
    },
    {
      "inputs": [],
      "name": "getEntranceFeed",
      "outputs": [
        {
          "internalType": "uint256",
          "name": "",
          "type": "uint256"
        }
      ],
      "stateMutability": "view",
      "type": "function"
    },
    {
      "inputs": [],
      "name": "getInterval",
      "outputs": [
        {
          "internalType": "uint256",
          "name": "",
          "type": "uint256"
        }
      ],
      "stateMutability": "view",
      "type": "function"
    },
    {
      "inputs": [],
      "name": "getLastestTimeStamp",
      "outputs": [
        {
          "internalType": "uint256",
          "name": "",
          "type": "uint256"
        }
      ],
      "stateMutability": "view",
      "type": "function"
    },
    {
      "inputs": [],
      "name": "getNumPlayers",
      "outputs": [
        {
          "internalType": "uint256",
          "name": "",
          "type": "uint256"
        }
      ],
      "stateMutability": "view",
      "type": "function"
    },
    {
      "inputs": [],
      "name": "getNumWords",
      "outputs": [
        {
          "internalType": "uint256",
          "name": "",
          "type": "uint256"
        }
      ],
      "stateMutability": "pure",
      "type": "function"
    },
    {
      "inputs": [
        {
          "internalType": "uint256",
          "name": "index",
          "type": "uint256"
        }
      ],
      "name": "getPlayer",
      "outputs": [
        {
          "internalType": "address",
          "name": "",
          "type": "address"
        }
      ],
      "stateMutability": "view",
      "type": "function"
    },
    {
      "inputs": [],
      "name": "getRaffleState",
      "outputs": [
        {
          "internalType": "enum Raffle.RaffleState",
          "name": "",
          "type": "uint8"
        }
      ],
      "stateMutability": "view",
      "type": "function"
    },
    {
      "inputs": [],
      "name": "getRecentWinner",
      "outputs": [
        {
          "internalType": "address",
          "name": "",
          "type": "address"
        }
      ],
      "stateMutability": "view",
      "type": "function"
    },
    {
      "inputs": [],
      "name": "getRequestConfirmation",
      "outputs": [
        {
          "internalType": "uint256",
          "name": "",
          "type": "uint256"
        }
      ],
      "stateMutability": "pure",
      "type": "function"
    },
    {
      "inputs": [],
      "name": "getSubscriptionId",
      "outputs": [
        {
          "internalType": "uint64",
          "name": "",
          "type": "uint64"
        }
      ],
      "stateMutability": "view",
      "type": "function"
    },
    {
      "inputs": [
        {
          "internalType": "bytes",
          "name": "",
          "type": "bytes"
        }
      ],
      "name": "performUpkeep",
      "outputs": [],
      "stateMutability": "nonpayable",
      "type": "function"
    },
    {
      "inputs": [
        {
          "internalType": "uint256",
          "name": "requestId",
          "type": "uint256"
        },
        {
          "internalType": "uint256[]",
          "name": "randomWords",
          "type": "uint256[]"
        }
      ],
      "name": "rawFulfillRandomWords",
      "outputs": [],
      "stateMutability": "nonpayable",
      "type": "function"
    }
  ],
  "transactionHash": "0xc1b4ca47c2636831a3a2e6693a746143588751498ca3d30d8a73872bf2eaee77",
  "args": [
    "0x2Ca8E0C643bDe4C2E08ab1fA0da3401AdAD7734D",
    "20000000000000000",
    "0x79d3d8832d904592c0bf9818b621522c988bb8b0c05cdc3b15aea1b6e8db0c15",
    "6671",
    "500000",
    "40"
  ],
  "numDeployments": 1,
  "solcInputHash": "ce239c26fc20760ba8821b15ad4e11fd",
  "bytecode": "0x6101606040523480156200001257600080fd5b50604051620018c9380380620018c98339818101604052810190620000389190620001ad565b858073ffffffffffffffffffffffffffffffffffffffff1660808173ffffffffffffffffffffffffffffffffffffffff1660601b81525050508460a081815250508573ffffffffffffffffffffffffffffffffffffffff1660c08173ffffffffffffffffffffffffffffffffffffffff1660601b815250508360e081815250508267ffffffffffffffff166101008167ffffffffffffffff1660c01b815250508163ffffffff166101208163ffffffff1660e01b815250506000600160146101000a81548160ff02191690836001811115620001195762000118620002b5565b5b0217905550426002819055508061014081815250505050505050506200036b565b6000815190506200014b81620002e9565b92915050565b600081519050620001628162000303565b92915050565b60008151905062000179816200031d565b92915050565b600081519050620001908162000337565b92915050565b600081519050620001a78162000351565b92915050565b60008060008060008060c08789031215620001cd57620001cc620002e4565b5b6000620001dd89828a016200013a565b9650506020620001f089828a0162000168565b95505060406200020389828a0162000151565b94505060606200021689828a0162000196565b93505060806200022989828a016200017f565b92505060a06200023c89828a0162000168565b9150509295509295509295565b6000620002568262000267565b9050919050565b6000819050919050565b600073ffffffffffffffffffffffffffffffffffffffff82169050919050565b6000819050919050565b600063ffffffff82169050919050565b600067ffffffffffffffff82169050919050565b7f4e487b7100000000000000000000000000000000000000000000000000000000600052602160045260246000fd5b600080fd5b620002f48162000249565b81146200030057600080fd5b50565b6200030e816200025d565b81146200031a57600080fd5b50565b620003288162000287565b81146200033457600080fd5b50565b620003428162000291565b81146200034e57600080fd5b50565b6200035c81620002a1565b81146200036857600080fd5b50565b60805160601c60a05160c05160601c60e0516101005160c01c6101205160e01c610140516114db620003ee600039600081816108090152610881015260006106b901526000818161069601526108de015260006106750152600061063901526000818161041501526108a901526000818161035501526103a901526114db6000f3fe6080604052600436106100dd5760003560e01c80636e04ff0d1161007f578063b97cd82c11610059578063b97cd82c1461027e578063ca6a9ef8146102a9578063de3d9fb7146102d4578063e55ae4e8146102ff576100dd565b80636e04ff0d146101ea5780638ba05b0e1461022857806391ad27b414610253576100dd565b80634585e33b116100bb5780634585e33b14610140578063473f1ddc1461016957806353a2c19a1461019457806355c9e926146101bf576100dd565b8063115cbaf5146100e25780631fe543e31461010d5780632cfcc53914610136575b600080fd5b3480156100ee57600080fd5b506100f761033c565b60405161010491906110ab565b60405180910390f35b34801561011957600080fd5b50610134600480360381019061012f9190610e9f565b610353565b005b61013e610413565b005b34801561014c57600080fd5b5061016760048036038101906101629190610daf565b610582565b005b34801561017557600080fd5b5061017e610781565b60405161018b9190610fe4565b60405180910390f35b3480156101a057600080fd5b506101a96107ab565b6040516101b691906110c6565b60405180910390f35b3480156101cb57600080fd5b506101d46107ba565b6040516101e191906110c6565b60405180910390f35b3480156101f657600080fd5b50610211600480360381019061020c9190610dfc565b6107c6565b60405161021f929190611028565b60405180910390f35b34801561023457600080fd5b5061023d610873565b60405161024a91906110c6565b60405180910390f35b34801561025f57600080fd5b5061026861087d565b60405161027591906110c6565b60405180910390f35b34801561028a57600080fd5b506102936108a5565b6040516102a091906110c6565b60405180910390f35b3480156102b557600080fd5b506102be6108cd565b6040516102cb91906110c6565b60405180910390f35b3480156102e057600080fd5b506102e96108da565b6040516102f69190611118565b60405180910390f35b34801561030b57600080fd5b5061032660048036038101906103219190610e45565b610902565b6040516103339190610fe4565b60405180910390f35b6000600160149054906101000a900460ff16905090565b7f000000000000000000000000000000000000000000000000000000000000000073ffffffffffffffffffffffffffffffffffffffff163373ffffffffffffffffffffffffffffffffffffffff161461040557337f00000000000000000000000000000000000000000000000000000000000000006040517f1cf993f40000000000000000000000000000000000000000000000000000000081526004016103fc929190610fff565b60405180910390fd5b61040f8282610949565b5050565b7f000000000000000000000000000000000000000000000000000000000000000034101561046d576040517ff9198edd00000000000000000000000000000000000000000000000000000000815260040160405180910390fd5b60006001811115610481576104806113bb565b5b600160149054906101000a900460ff1660018111156104a3576104a26113bb565b5b146104da576040517f66a93d1400000000000000000000000000000000000000000000000000000000815260040160405180910390fd5b6000339080600181540180825580915050600190039060005260206000200160009091909190916101000a81548173ffffffffffffffffffffffffffffffffffffffff021916908373ffffffffffffffffffffffffffffffffffffffff1602179055503373ffffffffffffffffffffffffffffffffffffffff167f742d070bf0f3edace132a9da8ba725e8cf99c478869cee7f673ed6085e2f8e6460405160405180910390a2565b600061059c604051806020016040528060008152506107c6565b5090508061060b5747600080549050600160149054906101000a900460ff1660018111156105cd576105cc6113bb565b5b6040517f584327aa000000000000000000000000000000000000000000000000000000008152600401610602939291906110e1565b60405180910390fd5b60018060146101000a81548160ff021916908360018111156106305761062f6113bb565b5b021790555060007f000000000000000000000000000000000000000000000000000000000000000073ffffffffffffffffffffffffffffffffffffffff16635d3b1d307f00000000000000000000000000000000000000000000000000000000000000007f000000000000000000000000000000000000000000000000000000000000000060037f000000000000000000000000000000000000000000000000000000000000000060016040518663ffffffff1660e01b81526004016106fa959493929190611058565b602060405180830381600087803b15801561071457600080fd5b505af1158015610728573d6000803e3d6000fd5b505050506040513d601f19601f8201168201806040525081019061074c9190610e72565b9050807f97d29e2be7c0343b13de7336176f1fcfc3e3c1b78fb3751c719189723f2bf1c760405160405180910390a250505050565b6000600160009054906101000a900473ffffffffffffffffffffffffffffffffffffffff16905090565b6000600163ffffffff16905090565b60008080549050905090565b600060606000600160149054906101000a900460ff1660018111156107ee576107ed6113bb565b5b60006001811115610802576108016113bb565b5b14905060007f00000000000000000000000000000000000000000000000000000000000000006002544261083691906111dc565b119050600080600080549050119050600080471190508380156108565750825b801561085f5750815b80156108685750805b955050505050915091565b6000600254905090565b60007f0000000000000000000000000000000000000000000000000000000000000000905090565b60007f0000000000000000000000000000000000000000000000000000000000000000905090565b6000600361ffff16905090565b60007f0000000000000000000000000000000000000000000000000000000000000000905090565b6000808281548110610917576109166113ea565b5b9060005260206000200160009054906101000a900473ffffffffffffffffffffffffffffffffffffffff169050919050565b6000808054905082600081518110610964576109636113ea565b5b6020026020010151610976919061132c565b9050600080828154811061098d5761098c6113ea565b5b9060005260206000200160009054906101000a900473ffffffffffffffffffffffffffffffffffffffff16905080600160006101000a81548173ffffffffffffffffffffffffffffffffffffffff021916908373ffffffffffffffffffffffffffffffffffffffff1602179055506000600160146101000a81548160ff02191690836001811115610a2157610a206113bb565b5b0217905550600067ffffffffffffffff811115610a4157610a40611419565b5b604051908082528060200260200182016040528015610a6f5781602001602082028036833780820191505090505b5060009080519060200190610a85929190610b7a565b504260028190555060008173ffffffffffffffffffffffffffffffffffffffff1647604051610ab390610fcf565b60006040518083038185875af1925050503d8060008114610af0576040519150601f19603f3d011682016040523d82523d6000602084013e610af5565b606091505b5050905080610b30576040517fa1d04b3900000000000000000000000000000000000000000000000000000000815260040160405180910390fd5b8173ffffffffffffffffffffffffffffffffffffffff167f5b690ec4a06fe979403046eaeea5b3ce38524683c3001f662c8b5a829632f7df60405160405180910390a25050505050565b828054828255906000526020600020908101928215610bf3579160200282015b82811115610bf25782518260006101000a81548173ffffffffffffffffffffffffffffffffffffffff021916908373ffffffffffffffffffffffffffffffffffffffff16021790555091602001919060010190610b9a565b5b509050610c009190610c04565b5090565b5b80821115610c1d576000816000905550600101610c05565b5090565b6000610c34610c2f84611158565b611133565b90508083825260208201905082856020860282011115610c5757610c56611452565b5b60005b85811015610c875781610c6d8882610d85565b845260208401935060208301925050600181019050610c5a565b5050509392505050565b6000610ca4610c9f84611184565b611133565b905082815260208101848484011115610cc057610cbf611457565b5b610ccb8482856112b9565b509392505050565b600082601f830112610ce857610ce761144d565b5b8135610cf8848260208601610c21565b91505092915050565b60008083601f840112610d1757610d1661144d565b5b8235905067ffffffffffffffff811115610d3457610d33611448565b5b602083019150836001820283011115610d5057610d4f611452565b5b9250929050565b600082601f830112610d6c57610d6b61144d565b5b8135610d7c848260208601610c91565b91505092915050565b600081359050610d948161148e565b92915050565b600081519050610da98161148e565b92915050565b60008060208385031215610dc657610dc5611461565b5b600083013567ffffffffffffffff811115610de457610de361145c565b5b610df085828601610d01565b92509250509250929050565b600060208284031215610e1257610e11611461565b5b600082013567ffffffffffffffff811115610e3057610e2f61145c565b5b610e3c84828501610d57565b91505092915050565b600060208284031215610e5b57610e5a611461565b5b6000610e6984828501610d85565b91505092915050565b600060208284031215610e8857610e87611461565b5b6000610e9684828501610d9a565b91505092915050565b60008060408385031215610eb657610eb5611461565b5b6000610ec485828601610d85565b925050602083013567ffffffffffffffff811115610ee557610ee461145c565b5b610ef185828601610cd3565b9150509250929050565b610f0481611210565b82525050565b610f1381611222565b82525050565b610f228161122e565b82525050565b6000610f33826111b5565b610f3d81856111c0565b9350610f4d8185602086016112c8565b610f5681611466565b840191505092915050565b610f6a816112a7565b82525050565b6000610f7d6000836111d1565b9150610f8882611477565b600082019050919050565b610f9c8161124b565b82525050565b610fab81611279565b82525050565b610fba81611283565b82525050565b610fc981611293565b82525050565b6000610fda82610f70565b9150819050919050565b6000602082019050610ff96000830184610efb565b92915050565b60006040820190506110146000830185610efb565b6110216020830184610efb565b9392505050565b600060408201905061103d6000830185610f0a565b818103602083015261104f8184610f28565b90509392505050565b600060a08201905061106d6000830188610f19565b61107a6020830187610fc0565b6110876040830186610f93565b6110946060830185610fb1565b6110a16080830184610fb1565b9695505050505050565b60006020820190506110c06000830184610f61565b92915050565b60006020820190506110db6000830184610fa2565b92915050565b60006060820190506110f66000830186610fa2565b6111036020830185610fa2565b6111106040830184610fa2565b949350505050565b600060208201905061112d6000830184610fc0565b92915050565b600061113d61114e565b905061114982826112fb565b919050565b6000604051905090565b600067ffffffffffffffff82111561117357611172611419565b5b602082029050602081019050919050565b600067ffffffffffffffff82111561119f5761119e611419565b5b6111a882611466565b9050602081019050919050565b600081519050919050565b600082825260208201905092915050565b600081905092915050565b60006111e782611279565b91506111f283611279565b9250828210156112055761120461135d565b5b828203905092915050565b600061121b82611259565b9050919050565b60008115159050919050565b6000819050919050565b60008190506112468261147a565b919050565b600061ffff82169050919050565b600073ffffffffffffffffffffffffffffffffffffffff82169050919050565b6000819050919050565b600063ffffffff82169050919050565b600067ffffffffffffffff82169050919050565b60006112b282611238565b9050919050565b82818337600083830152505050565b60005b838110156112e65780820151818401526020810190506112cb565b838111156112f5576000848401525b50505050565b61130482611466565b810181811067ffffffffffffffff8211171561132357611322611419565b5b80604052505050565b600061133782611279565b915061134283611279565b9250826113525761135161138c565b5b828206905092915050565b7f4e487b7100000000000000000000000000000000000000000000000000000000600052601160045260246000fd5b7f4e487b7100000000000000000000000000000000000000000000000000000000600052601260045260246000fd5b7f4e487b7100000000000000000000000000000000000000000000000000000000600052602160045260246000fd5b7f4e487b7100000000000000000000000000000000000000000000000000000000600052603260045260246000fd5b7f4e487b7100000000000000000000000000000000000000000000000000000000600052604160045260246000fd5b600080fd5b600080fd5b600080fd5b600080fd5b600080fd5b600080fd5b6000601f19601f8301169050919050565b50565b6002811061148b5761148a6113bb565b5b50565b61149781611279565b81146114a257600080fd5b5056fea26469706673582212209772f84512529fbf4d8716fea9c539c22b73c4d5bfe621542d55bc87d989a07364736f6c63430008070033",
  "devdoc": {
    "author": "Carlos B",
    "details": "this implements chainlink VRF V2 and chainlink Keepers",
    "kind": "dev",
    "methods": {
      "checkUpkeep(bytes)": {
        "details": "this is a function that the Chainlink Keeper nodes call they look for the 'upKeepNeeded' to return true the following should be true in order to return true 1. Our time interval should have passed 2. the lottery should have at least 1 player, and some ETH 3 Our sucrupcion is funded with link 4. the lottery shold be in open state"
      }
    },
    "title": "A Sample Raffle Contract",
    "version": 1
  },
  "userdoc": {
    "kind": "user",
    "methods": {},
    "notice": "this contract is for creating an untamperable decentralized smart contrat",
    "version": 1
  },
  "storageLayout": {
    "storage": [
      {
        "astId": 1199,
        "contract": "contracts/Raffle.sol:Raffle",
        "label": "s_player",
        "offset": 0,
        "slot": "0",
        "type": "t_array(t_address_payable)dyn_storage"
      },
      {
        "astId": 1220,
        "contract": "contracts/Raffle.sol:Raffle",
        "label": "s_recentWinner",
        "offset": 0,
        "slot": "1",
        "type": "t_address"
      },
      {
        "astId": 1223,
        "contract": "contracts/Raffle.sol:Raffle",
        "label": "s_rafflestate",
        "offset": 20,
        "slot": "1",
        "type": "t_enum(RaffleState)1196"
      },
      {
        "astId": 1225,
        "contract": "contracts/Raffle.sol:Raffle",
        "label": "s_lastTimeStamp",
        "offset": 0,
        "slot": "2",
        "type": "t_uint256"
      }
    ],
    "types": {
      "t_address": {
        "encoding": "inplace",
        "label": "address",
        "numberOfBytes": "20"
      },
      "t_address_payable": {
        "encoding": "inplace",
        "label": "address payable",
        "numberOfBytes": "20"
      },
      "t_array(t_address_payable)dyn_storage": {
        "base": "t_address_payable",
        "encoding": "dynamic_array",
        "label": "address payable[]",
        "numberOfBytes": "32"
      },
      "t_enum(RaffleState)1196": {
        "encoding": "inplace",
        "label": "enum Raffle.RaffleState",
        "numberOfBytes": "1"
      },
      "t_uint256": {
        "encoding": "inplace",
        "label": "uint256",
        "numberOfBytes": "32"
      }
    }
  }
}